:020000040000FA
:1000000025005E0A230B250B480388012B004B03B8
:10001000A803890303022A0003042B006B030306D1
:100020000B050A0223000B028801A803010E6903D5
:10003000A901680300082E00AE02070C2F002F0C48
:100040003000030C3100EF02260AF002280AF10208
:10005000230A2A0A2B0A2C0A2D0A2E0AEE021D0A4E
:100060000008010C2E00AE02C60C2F00010C30005F
:10007000EF023B0AF002380A3D0A3E0AEE02340A59
:100080000008FF0C2600FF0C5C0A010C2600FA0C8D
:100090005C0A040C2600FA0C5C0A020C2600F90C1F
:1000A0005C0A040C2600F90C5C0A010C2600FC0C0E
:1000B0005C0A020C2600FC0C06000008470C02003B
:1000C000300C2800450C2900600C32094109060259
:1000D000080E43077F0A04094509100C3209490933
:1000E000100C32094D09100C32095109100C32095B
:1000F0005509100C32095909100C3209660AF20A26
:10010000010C2D00400C0309030C2D00400C0309C9
:10011000070C2D00400C03090F0C2D00400C0309A7
:100120001F0C2D00400C03093F0C2D00400C03094F
:10013000FF0C32093F0C2D00200C0309FF0C320983
:100140003F0C2D00200C0309FF0C32093F0C2D0041
:10015000200C0309FF0C32093F0C2D00400C030951
:100160000602100C32090300100C320906020300CB
:10017000100C32090300800A0A0C3300F300430616
:100180000008010C0209030C0209070C02090F0CFC
:1001900002091F0C02093F0C02093E0C02093C0C2B
:1001A0000209380C0209300C0209200C0209000C6B
:1001B0000209200C0209300C0209380C02093C0C1F
:1001C00002093E0C02093F0C02091F0C02090F0C28
:1001D0000209070C0209030C0209010C0209000CB8
:1001E0000209BE0AFF0C3300F300430600081E0C90
:1001F00032094109960C320904090802070E2B0046
:100200008C014306FC0A0B022C004306170BEB0083
:100210004306190BEB0043061B0BEB0043061D0BBB
:10022000EB0043061F0BEB004306210BFC0A4509BC
:10023000F40A4909F40A4D09F40A5109F40A550966
:10024000F40A5909F40A2D00400C32000D02010E87
:100250004307450931090D02020E430749093109D7
:100260000D02040E43074D0931090D02080E430724
:10027000510931090D02100E4307550931090D02CC
:10028000200E430759093109F202260B41090008E3
:021FFE00EB0FE7
:00000001FF
